:100000000C945E010C9486010C9486010C9486017C
:100010000C9486010C9486010C9486010C94860144
:100020000C9486010C9486010C9486010C94860134
:100030000C9486010C9486010C9486010C94860124
:100040000C9462100C9486010C94D2100C94AC1099
:100050000C9486010C9486010C9486010C94860104
:100060000C9486010C94860100C0C101C30302C236
:10007000C60607C705C5C404CC0C0DCD0FCFCE0EE8
:100080000ACACB0BC90908C8D81819D91BDBDA1A58
:100090001EDEDF1FDD1D1CDC14D4D515D71716D6C8
:1000A000D21213D311D1D010F03031F133F3F23238
:1000B00036F6F737F53534F43CFCFD3DFF3F3EFEA8
:1000C000FA3A3BFB39F9F83828E8E929EB2B2AEA18
:1000D000EE2E2FEF2DEDEC2CE42425E527E7E62688
:1000E00022E2E323E12120E0A06061A163A3A262F8
:1000F00066A6A767A56564A46CACAD6DAF6F6EAE68
:10010000AA6A6BAB69A9A86878B8B979BB7B7ABAD7
:10011000BE7E7FBF7DBDBC7CB47475B577B7B67647
:1001200072B2B373B17170B05090915193535292B7
:1001300096565797559594549C5C5D9D5F9F9E5E27
:100140005A9A9B5B99595898884849894B8B8A4A97
:100150004E8E8F4F8D4D4C8C448485458747468607
:10016000824243834181804000C1814001C080417F
:1001700001C0804100C1814001C0804100C1814077
:1001800000C1814001C0804101C0804100C1814067
:1001900000C1814001C0804100C1814001C0804157
:1001A00001C0804100C1814001C0804100C1814047
:1001B00000C1814001C0804100C1814001C0804137
:1001C00001C0804100C1814000C1814001C0804127
:1001D00001C0804100C1814001C0804100C1814017
:1001E00000C1814001C0804101C0804100C1814007
:1001F00000C1814001C0804100C1814001C08041F7
:1002000001C0804100C1814000C1814001C08041E6
:1002100001C0804100C1814001C0804100C18140D6
:1002200000C1814001C0804100C1814001C08041C6
:1002300001C0804100C1814001C0804100C18140B6
:1002400000C1814001C0804101C0804100C18140A6
:1002500000C1814001C0804100C1814001C0804196
:1002600001C0804100C1814000000000240027003F
:100270002A0000000000250028002B0004040404CC
:100280000404040402020202020203030303030340
:10029000010204081020408001020408102001021D
:1002A00004081020000000080002010000030407F9
:1002B00000000000000000000C11041111241FBEFA
:1002C000CFEFD8E0DEBFCDBF25E0AEE6B4E001C0A1
:1002D0001D92AD38B207E1F714E0A0E0B1E0E4E42C
:1002E000F2E302C005900D92AE36B107D9F711E0E6
:1002F000CDE5D1E004C02197FE010E94A114CC35C8
:10030000D107C9F70E94E0110C9415190C94000054
:1003100080916B0590916C05823091054CF4209191
:10032000690530916A05280F391F223031054CF4D8
:1003300084EE9BE2909382058093810590E080E0BB
:100340000895E0917905F0917A05E81BF90B118287
:1003500081E090E0089520916B0530916C05821743
:1003600093074CF04091690550916A05420F531F65
:10037000841795074CF084EE9BE29093820580935E
:1003800081058FEF9FEF0895821B930B20917905D4
:1003900030917A05820F931FFC01808190E00895CF
:1003A00090E0FC01EC55FD4F2491FC01E057FD4F1E
:1003B0003491FC01E458FD4FE491EE23C9F022236F
:1003C00039F0233001F1A8F4213019F1223029F15C
:1003D000F0E0EE0FFF1FEE58FD4FA591B4918FB7DF
:1003E000F894EC91611126C030953E233C938FBF69
:1003F00008952730A9F02830C9F0243049F78091BA
:1004000080008F7D03C0809180008F778093800073
:10041000DFCF84B58F7784BDDBCF84B58F7DFBCFF5
:100420008091B0008F778093B000D2CF8091B000E0
:100430008F7DF9CF3E2BDACFCF93DF9390E0FC0195
:10044000E057FD4F249184589D4FFC0184918823EF
:10045000D1F090E0880F991FFC01E859FD4FA5915C
:10046000B491FC01EE58FD4FC591D49161110EC0BD
:100470009FB7F8948C91E22FE0958E238C9328817E
:10048000E223E8839FBFDF91CF9108958FB7F8945F
:10049000EC91E22BEC938FBFF6CF3FB7F8948091AD
:1004A000740490917504A0917604B091770426B5F8
:1004B000A89B05C02F3F19F00196A11DB11D3FBF9C
:1004C000BA2FA92F982F8827BC01CD01620F711D6B
:1004D000811D911D42E0660F771F881F991F4A9565
:1004E000D1F708958F929F92AF92BF92CF92DF92F1
:1004F000EF92FF926B017C010E944D024B015C0167
:10050000C114D104E104F104B9F00E944D0268194C
:1005100079098A099B09683E73408105910580F33A
:1005200021E0C21AD108E108F10888EE880E83E0C4
:10053000981EA11CB11CE4CFFF90EF90DF90CF90EC
:10054000BF90AF909F908F900895AF92BF92CF923F
:10055000DF92EF92FF920F931F93CF93DF936C0183
:100560007B018B01040F151FEB015E01AE18BF0864
:10057000C017D10759F06991D601ED91FC91019016
:10058000F081E02DC6010995892B79F7C501DF912E
:10059000CF911F910F91FF90EF90DF90CF90BF9080
:1005A000AF900895FC01538D448D252F30E0842FAA
:1005B00090E0821B930B541710F0CF96089501978B
:1005C0000895FC01918D828D981761F0A28DAE0F78
:1005D000BF2FB11D5D968C91928D9F5F9F73928FFF
:1005E00090E008958FEF9FEF0895FC01918D828D2B
:1005F000981731F0828DE80FF11D858D90E00895F8
:100600008FEF9FEF0895FC01918D228D892F90E04F
:10061000805C9F4F821B91098F73992708958AE808
:1006200094E00E94030321E0892B09F420E0822F4B
:10063000089580E090E0892B29F00E940F0381113A
:100640000C9400000895FC01A48DA80FB92FB11DD2
:10065000A35ABF4F2C91848D90E001968F739927F8
:10066000848FA689B7892C93A089B1898C918370D6
:1006700080648C93938D848D981306C00288F389CF
:10068000E02D80818F7D80830895EF92FF920F93FC
:100690001F93CF93DF93EC0181E0888F9B8D8C8D2E
:1006A00098131AC0E889F989808185FF15C09FB722
:1006B000F894EE89FF896083E889F98980818370E5
:1006C000806480839FBF81E090E0DF91CF911F9194
:1006D0000F91FF90EF900895F62E0B8D10E00F5FB5
:1006E0001F4F0F731127E02E8C8D8E110CC00FB68B
:1006F00007FCFACFE889F989808185FFF5CFCE0123
:100700000E942303F1CFEB8DEC0FFD2FF11DE35A77
:10071000FF4FF0829FB7F8940B8FEA89FB898081A5
:100720008062CFCFCF93DF93EC01888D8823B9F01F
:10073000AA89BB89E889F9898C9185FD03C08081EC
:1007400086FD0DC00FB607FCF7CF8C9185FFF2CF69
:10075000808185FFEDCFCE010E942303E9CFDF9199
:10076000CF910895009741F0DC015896ED91FC91EE
:1007700004A0F5A1E02D09940895009741F0DC0153
:100780005896ED91FC91068CF78DE02D0994089513
:10079000009741F0DC015896ED91FC91048CF58DA9
:1007A000E02D099486E190E0909382058093810585
:1007B0008FEF9FEF0895009741F0DC015896ED917F
:1007C000FC9100A0F1A1E02D099486E190E09093C6
:1007D0008205809381058FEF9FEF0895CF93DF937C
:1007E000EC01288539854A855B85A8EEB3E00E9437
:1007F0002E140E9472028C859D858230910538F0FE
:10080000880F991F880F991F05970197F1F7DF91BE
:10081000CF9108952F923F924F925F926F927F9265
:100820008F929F92AF92BF92CF92DF92EF92FF9200
:100830000F931F93CF93DF93CDB7DEB72A970FB6F1
:10084000F894DEBF0FBECDBF7C013B012A01DC0165
:100850005896ED91FC915997028113810F5F1F4FBC
:10086000312C212C452BB1F018968D919D910D9036
:10087000BC91A02D89839A83AB83BC83F7018485C7
:100880009585A685B7858D839E83AF83B887CE0176
:1008900001961C01D12CC12C912C812CD70158968A
:1008A000ED91FC910115110549F4008CF18DE02DBD
:1008B000A401B301C70109955C0129C002A0F3A1FD
:1008C000E02D9801A101BE01675F7F4FC701099527
:1008D0005C01D7019FEFA916B906F1F516968C9128
:1008E00081FD04C0AA24AA94BA2C11C000918105EC
:1008F000109182050437110521F5C7010E94EE030E
:10090000C7010E94DB031093820500938105C50196
:100910002A960FB6F894DEBF0FBECDBFDF91CF9100
:100920001F910F91FF90EF90DF90CF90BF90AF900D
:100930009F908F907F906F905F904F903F902F90FF
:100940000895023FBDE21B07F1F6C7010E94BD03F7
:10095000C7010E94C803D7CF5896ED91FC91068835
:10096000F789E02DA801B301680D791DC70109952C
:100970006115710509F582EF9DE2909382058093E0
:100980008105F701868181FFADCF0091810510912E
:100990008205023FFDE21F0721F00F36110509F025
:1009A000A1CFC7010E94BD03C7010E94C8031093D5
:1009B00082050093810596CF6F3F760711F3860E6F
:1009C000971E061B170B09F099C0D7015896ED9199
:1009D000FC91C114D10441F0CA94CD2809F457C048
:1009E00082E0C82ED12C5ACFA281B381A60DB71DAB
:1009F0008C9141145104B9F490E087309105D4F002
:100A00009C012F5031092230310508F47CC0863119
:100A1000910509F47EC04797D1F5CC24C394D12C1D
:100A200009E010E015C0813158F48F3018F485507A
:100A3000823048F4CC24C394D12C04E010E008C0E8
:100A4000863109F466C0CC24C394D12C01E010E0B7
:100A5000F701408951896289738984899589A689BA
:100A6000B789411551056105710529F40097A10564
:100A7000B10509F413CF49835A836B837C838D833B
:100A80009E83AF83B887CE0101961C0107CFA28158
:100A9000B381A60DB71D8C914114510401F58F301F
:100AA00020F08131A8F08731B9F084819581080F59
:100AB000191F9401200F311F868197818217930798
:100AC000D4F48FEE9BE290938205809381050ACF48
:100AD00015960C9110E0E9CF19960C91FBCF90E0A0
:100AE000853091052CF08131910511F04797E9F699
:100AF00011960C91EFCF52E0C52ED12C1016110695
:100B00000CF4A6CFCBCECC24C394D12C05E010E0BE
:100B10009FCFCC24C394D12C06E010E099CFFB01E9
:100B20008081FA019081891759F0882349F083EF79
:100B30009BE290938205809381058FEF9FEF08954C
:100B400090E080E00895CF93DF93FC01C28DD38DB8
:100B50002E813F81232B59F041E050E00E940A048E
:100B60001F821E8290E080E0DF91CF91089550E0D7
:100B700040E00E940A040097B9F721E030E03F838B
:100B80002E83F2CFCF92DF92EF92FF927B016A0128
:100B90008091390590913A0597FD03C061E00E946C
:100BA000D001809137059091380597FD07C061E02D
:100BB0000E94D00183EC90E00197F1F781E08093EF
:100BC0003B05A601B70187E295E00E94A5026C01F2
:100BD000F12CE12C8091330590913405DC01ED91ED
:100BE000FC910680F781E02D099580913705909161
:100BF000380597FD07C0E3ECF0E03197F1F760E0CE
:100C00000E94D00110923B058091390590913A05E0
:100C100097FD03C060E00E94D001C701B601FF90BC
:100C2000EF90DF90CF900895FB0180819181029732
:100C30009183808390E080E00895DC01680F791F44
:100C40008FEF9FEFA617B70769F02D91292730E0A6
:100C5000F901E859FE4F94919827F901E859FF4F9F
:100C60008491F0CF08950F931F93CF93DF93EC01FE
:100C70008B010E941D06C00FD11F98838983C80174
:100C80000296DF91CF911F910F910895FC01208171
:100C9000FB012083FC018281FB01818382E090E0E3
:100CA0000895683F710530F4FC017183608390E022
:100CB00080E0089586E190E090938205809381051D
:100CC0008FEF9FEF089581E00895FC0184898823C8
:100CD00049F084859585DC01ED91FC910190F081CE
:100CE000E02D099481E090E09383828390E080E09E
:100CF0000895DC011C968D919C91DC01ED91FC9195
:100D00000680F781E02D0994DC011C968D919C9161
:100D1000DC01ED91FC910284F385E02D0994EF92C2
:100D2000FF920F931F93CF93DF937A018B01D0E053
:100D3000C0E0CE15DF0508F03DC02FB7F8948091D4
:100D4000700490917104A0917204B09173042FBF4C
:100D500080932F0590933005A0933105B093320511
:100D600087E295E00E94840697FF2EC02FB7F89483
:100D70008091700490917104A0917204B0917304F9
:100D80002FBF40912F055091300560913105709132
:100D90003205841B950BA60BB70B40912B05509188
:100DA0002C0560912D0570912E0584179507A607D7
:100DB000B707B0F2BE0190E080E0DF91CF911F91C4
:100DC0000F91FF90EF900895F80181938F01219684
:100DD000B0CFDC011C968D919C91DC01ED91FC91D2
:100DE0000484F585E02D0994DC011C968D919C917D
:100DF000DC01ED91FC910084F185E02D09948F9246
:100E00009F92AF92BF92CF92DF92EF92FF92CF93D9
:100E1000DF93FA01E901C12CD12C76013097C1F0A2
:100E20002081318142815381A8EEB3E00E942E14CB
:100E30006B017C01648175818681978128EE33E0A6
:100E400040E050E00E947F14C20ED31EE41EF51E47
:100E50008FB7F8948090700490907104A090720401
:100E6000B09073048FBF87E295E00E94F4068C1760
:100E70009D07A4F42FB7F894409170045091710429
:100E800060917204709173042FBF481959096A095F
:100E90007B094C155D056E057F0528F3009741F42D
:100EA00084E790E090938205809381058FEF9FEF18
:100EB000DF91CF91FF90EF90DF90CF90BF90AF90F8
:100EC0009F908F90089587E295E00E94F406892B09
:100ED00029F087E295E00E948406F5CF90E080E05B
:100EE0000895EF92FF920F931F93CF93DF937C01AE
:100EF000EB018A01888190E0F70120813181281778
:100F0000390711F0892B51F5B80162507109CE01F2
:100F10000E941D06C00FD11FFE013297208121972C
:100F200038812327322723278217930779F0F70187
:100F3000868182FF03C0C7010E9463078EEE9BE299
:100F400090938205809381050FEF1FEFC801DF9119
:100F5000CF911F910F91FF90EF90089510E000E066
:100F6000F5CF0F931F93CF93DF938C01FC01C485C2
:100F7000D585E881F9810680F781E02DCE010995BC
:100F8000EA89FB8980818F7E8083EA89FB89808161
:100F9000877F8083EA89FB8980818F778083EA89D4
:100FA000FB8980818F7D80838A8D898FF80182897A
:100FB000938997FD08C060E00E94D00160E0F801CD
:100FC00080890E941C02F8018089918997FD0CC0DC
:100FD00060E00E94D00160E0F8018289DF91CF914A
:100FE0001F910F910C941C02DF91CF911F910F91D3
:100FF00008958091390590913A0597FD03C061E00D
:101000000E94D00187E295E00C94B107CF92DF9265
:10101000EF92FF921F93CF93DF93EC016A017B0164
:10102000122FCD8ADE8AEF8AF88E298F3A8F88892F
:10103000998997FD07C061E00E941C0260E08889E1
:101040000E94D0018A899B8997FD07C061E00E94B8
:101050001C0261E08A890E94D0011C8A0C84DD8513
:10106000C02DE889F98982E08083C11481EED80619
:10107000E104F104A1F060E079E08DE390E0A701E4
:1010800096010E947F14215031094109510956955A
:10109000479537952795211580E1380798F0E8891D
:1010A000F989108260E874E88EE190E0A70196016A
:1010B0000E947F14215031094109510956954795E5
:1010C00037952795EC85FD853083EE85FF85208358
:1010D000188EEC89FD891083EA89FB898081806103
:1010E0008083EA89FB89808188608083EA89FB8923
:1010F000808180688083EA89FB8980818F7D8083FD
:10110000DF91CF911F91FF90EF90DF90CF900895E6
:10111000DC015A96ED91FC91248135814081518109
:101120006281738187E295E00E940608809139050B
:1011300090913A0597FD03C060E00E94D00190E0D5
:1011400080E00895DC01ED91FC910088F189E02DAB
:1011500026E030E0099490E080E00895CF93DF939B
:10116000EC0184E491E0998388838C899D890097C0
:1011700011F00E9443158E899F89009711F00E94FB
:101180004315888D998D009711F00E9443158A8D23
:101190009B8D009711F00E9443158A819B810097D7
:1011A00021F0DF91CF910C94B203DF91CF9108959C
:1011B000CF93DF93EC010E94AE08CE01DF91CF9177
:1011C0000C944315CF93DF93EC0188E591E099836C
:1011D00088838B899C89009711F00E9443158A812E
:1011E0009B81009721F0DF91CF910C94B203DF91A6
:1011F000CF910895CF93DF93EC010E94E208CE01D6
:10120000DF91CF910C94431520E631E0FC0131834E
:1012100020830C94E208CF93DF93EC010E94040931
:10122000CE01DF91CF910C944315CF93DF93EC0166
:101230008A8D9B8D0E944315CE01DF91CF910C9436
:1012400043150E9489160F931F93F801DC018D91BD
:101250009C918F3F980711F40E94891680836183C7
:10126000528343833483258386E090E01F910F915E
:101270000895FB0101900020E9F73197AF01461B6B
:10128000570BDC01ED91FC910280F381E02D099474
:101290008F929F92AF92BF92EF92FF920F931F9304
:1012A000CF93DF93CDB7DEB7A1970FB6F894DEBF2B
:1012B0000FBECDBF7C01FA01CB0119A2223008F488
:1012C0002AE08E010F5D1F4F822E912CB12CA12C94
:1012D000BF01A50194010E947F14F901CA016A307F
:1012E0000CF5605DD8016E938D01232B242B252BEB
:1012F00079F790E080E0109721F0BD01C7010E94CE
:101300003909A1960FB6F894DEBF0FBECDBFDF91AD
:10131000CF911F910F91FF90EF90BF90AF909F9052
:101320008F900895695CDECF8F929F92AF92BF92AB
:10133000CF92DF92EF92FF920F931F93CF93DF93A1
:101340007C01EB016C0182E0C80ED11C4701E5E095
:101350008E0E911C10E000E0F60141916F0150E00B
:1013600070E060E02AE0CE010E9448095C01E8815B
:10137000F9810190F081E02D6EE2CE0109958A0D90
:101380009B1D080F191FC814D90431F7F7014581B7
:1013900050E070E060E02AE0CE010E944809800F32
:1013A000911FDF91CF911F910F91FF90EF90DF90F0
:1013B000CF90BF90AF909F908F900895BF92CF92A3
:1013C000DF92EF92FF920F931F93CF93DF93CDB7EE
:1013D000DEB7EC84FD84CE84DF84B8880A891B895B
:1013E000D70114968D919C91892B59F0AE01485EDE
:1013F0005F4F6E897F8980918705909188050E9453
:1014000097168C899D89892B31F0C7010E94EE03C4
:10141000C7010E94DB03F6018281938180589F4FB0
:1014200093838283D7015896ED91FC910484F585CE
:10143000E02DB801C6010995F801E80FF91FB08247
:101440000196DF91CF911F910F91FF90EF90DF9068
:10145000CF90BF9008952F923F924F925F926F92DC
:101460007F928F929F92AF92BF92CF92DF92EF9234
:10147000FF920F931F93CF93DF93CDB7DEB7C85181
:10148000D2400FB6F894DEBF0FBECDBFFC01A281E3
:10149000B381109701F586E190E0909382058093E7
:1014A0008105C85EDD4F0FB6F894DEBF0FBECDBF1D
:1014B000DF91CF911F910F91FF90EF90DF90CF9030
:1014C000BF90AF909F908F907F906F905F904F9064
:1014D0003F902F9008955C017E01FBEFEF1AFEEF25
:1014E000FF0A5896ED91FC9159970488F589E02DF3
:1014F000B701CD010995181619069CF6D50112966B
:101500004D905C90C55FDD4F99838883CB50D2406E
:101510004114510409F4BFCFD2015896ED91FC91CA
:10152000C280D380A4E0B1E0AC0FBD1FAC0DBD1DE7
:101530008C91282F30E0CD5EDD4F39832883C35155
:10154000D240A7014C0D5D1DC15FDD4F598348831B
:10155000CF50D240DA019C90092D10E0A6E0B1E016
:10156000AC0FBD1FAC0DBD1D2C90312C322C222494
:10157000A7E0B1E0AC0FBD1FAC0DBD1D8C91280ED6
:10158000311C3E01BBEF6B1ABDEF7B0AD3011196F4
:101590003C932E9313961C930E9312970684F78513
:1015A000E02DBE01655F7D4FC7010995F30195836D
:1015B0008483EFEFE90DE73108F06BC5F0E0ED5102
:1015C000F54F0C94A114FA0AFA0A260C260CB70C53
:1015D0000F0D940E49104910491049104910491037
:1015E0004910440DF30D630E49104910491049107C
:1015F000970EE30E0230110509F04CC0D5011A9682
:101600004D915C911B9718962D913C911997569688
:10161000AD90BC908EE891E0E8E0F1E0EC0FFD1FAA
:10162000EC0DFD1DE080F12CFE2CEE24E9E0F1E054
:10163000EC0FFD1FEC0DFD1D6081E60EF11CB701E6
:1016400061507109603D774078F127E02F9320EDDC
:101650002F939F938F93FF92EF9282EC91E09F9351
:101660008F931F9281E08F9321E030E02C0F3D1F7C
:101670003F932F931F9283E08F937F926F925F929D
:101680004F920E94DE098C010FB6F894DEBF0FBEA8
:10169000CDBF6EC0F5014681578124813581A48874
:1016A000B58884E891E0B8CF6101C41AD50AD7FCA7
:1016B00008C047018C0C9D1C28153905E4F42E0C3C
:1016C0003F1C9F938F933F922F928AEE91E09F93BE
:1016D0008F931F921F9261E070E06C0F7D1F7F93CC
:1016E0006F931F9282E08F937F926F925F924F92DF
:1016F0000E94DE09C8CFD2015896ED91FC91048476
:10170000F585E02DBE016F5F7F4FC30109958C0108
:101710000F5F1F4FE1E0F0E0EC0FFD1F8E0F9F1FEA
:1017200021E0A70147705527452B09F420E0F3E09D
:10173000F594E794FA95E1F7E20EDC01EC92F501FD
:10174000EC0DFD1D30E020E090E080E0AF014A1993
:101750005B09481559050CF460C0892B49F0E1E09C
:10176000F0E0EC0FFD1FE00FF11F20830F5F1F4F14
:10177000CD5EDD4F28813981C351D240232B09F43E
:1017800090CED2015896ED91FC910088F189E02D20
:10179000B801CE01019609958C01D2015896ED91C0
:1017A000FC910288F389E02DA801BE016F5F7F4F95
:1017B000C20109957B016F3F7F4FD9F4F201868109
:1017C00081FF17C0C0908105D0908205C201F2EF61
:1017D000CF16FDE2DF0609F06CC40E94BD03C20112
:1017E0000E94EE03C2010E94C803D0928205C092FB
:1017F0008105D20116968C9181FF04C0BFEFEB16D4
:10180000FB0659F21E141F040CF04BCE0E151F05DB
:1018100009F447CE8FEE9BE240CE419150E0082E76
:1018200002C0440F551F0A94E2F7242B352B873052
:10183000910551F4A1E0B0E0AC0FBD1FA00FB11FA6
:101840002C930F5F1F4F7ECF019680CF0430110580
:10185000B1F5F5014685578524853585808C918CB9
:101860008EE991E0E8E0F1E0EC0FFD1FEC0DFD1DCD
:10187000008110E0102F0027E9E0F1E0EC0FFD1FE0
:10188000EC0DFD1D6081060F111DB801615071093D
:10189000FE0131966F016D37710500F11F922DE742
:1018A0002F939F938F931F930F9382EC91E09F93BD
:1018B0008F931F9281E08F93FF93EF93DBCED5013F
:1018C00052964D915C91539750962D913C91519722
:1018D0005A968D909C9083EB91E0C4CF7101E41AED
:1018E000F50A5701F7FC07C0E00EF11E2E153F0563
:1018F0007CF4200E311E9F938F933F922F928AEE9D
:1019000091E09F938F931F921F92DF92CF92E9CE27
:10191000D2015896ED91FC910484F585E02DB60135
:10192000C3010995F601E80FF91F000F0083950127
:10193000220F331F820E931E0196F601E80FF91F46
:101940008F010C191D09AE14BF040CF011CFD40186
:1019500011968C91B2E08B0E911C8083D40112976A
:101960008C9181832FEFA21AB20A3296E9CFD5016A
:1019700016968D919C911797A101481B590BCE018A
:10198000019657FD06C014962D913C9142175307BE
:101990004CF03F922F922CE032E03F932F931F9216
:1019A0001F928EC1E8E0F1E0EC0FFD1FEC0DFD1D74
:1019B000208130E0322F2227E9E0F1E0EC0FFD1F1B
:1019C000EC0DFD1D6081260F311D2115FFEF3F0736
:1019D00019F021153105B1F4D5015496ED91FC9122
:1019E000E40FF51F41E0232B09F440E04083C55F7D
:1019F000DD4F08811981CB50D240A801B7010E9468
:101A00008E16B6CE3F922F923F932F9325E332E06E
:101A10003F932F931F921F929F938F9361C0D50185
:101A200052968D919C9153979101281B390BCE01B1
:101A3000019637FD07C050964D915C915197241740
:101A400035072CF03F922F9223E732E0A6CF220FEA
:101A5000331F5A96ED91FC91E20FF31FA8E0B1E01D
:101A6000AC0FBD1FAC0DBD1D2C9130E0322F2227D5
:101A7000A9E0B1E0AC0FBD1FAC0DBD1D4C91240F12
:101A8000311D31832083B3CFE8E0F1E0EC0FFD1F7F
:101A9000EC0DFD1D808190E0982F8827E9E0F1E0B2
:101AA000EC0FFD1FEC0DFD1D2081820F911D9C018F
:101AB00021503109203B3740B0F027E02F9320EB35
:101AC0002F939F938F9381EA92E09F938F931F921E
:101AD00081E08F93E1E0F0E0EC0FFD1FFF93EF93C7
:101AE0001F9283E000CED50116962D913C91179759
:101AF000F101E21BF30B9F01F7FD0CC0BC016E0F5F
:101B00007F1F14964D915C91159746175707D4F493
:101B1000280E391E3F922F9285ED92E09F938F936E
:101B20001F921F9221E030E02C0F3D1F3F932F9317
:101B30001F9282E08F937F926F925F924F920E94EA
:101B4000DE09A1CD56E0C50ED11C54960D911C9115
:101B5000200F311FF90150E040E081E090E08C0F50
:101B60009D1FC80ED91ECF01801B910B86179707AA
:101B7000F0F0D2015896ED91FC910484F585E02DAA
:101B8000BE016F5F7F4FC3010995A1E0B0E0AC0FCC
:101B9000BD1FA80FB91FF701E80FF91F24E001903E
:101BA0000D922A95E1F78C010C5F1F4FE1CDCF011B
:101BB000821B930BA3E096958795AA95E1F78C0D70
:101BC0009D1D8C5F9E4FDC018C9190E0042E02C025
:101BD000959587950A94E2F7817081934F5F5F4FE7
:101BE00047705527C0CFE8E0F1E0EC0FFD1FEC0D8A
:101BF000FD1D208130E0322F2227E9E0F1E0EC0FDB
:101C0000FD1FEC0DFD1D8081280F311DC9010197BD
:101C10008B37910578F01F928BE78F933F932F932B
:101C20008FEF92E09F938F931F9281E08F93CE016D
:101C30000196F2CED50152968D919C915397F10168
:101C4000E81BF90BCF01F7FD31C0A9014E0F5F1F53
:101C500050966D917C916417750734F1C15FDD4F2B
:101C6000E881F981CF50D2409C01220F331F2E19F9
:101C70003F092C193D09841795070CF07ACFD5013F
:101C80005A966D917C91DB01A20FB31FAE0FBF1F5F
:101C9000668170E0762F66271781610F711D6D9345
:101CA0007C9301963296E7CF220E331E3F922F92FD
:101CB00088E393E09F938F931F921F92CE0101962A
:101CC0009F938F9335CFD2015896ED91FC91048468
:101CD000F585E02DBE016F5F7F4FC3010995FE01C1
:101CE000E80FF91F24EB2283FE01E80FF91F2FEF05
:101CF0002383DC011396E1E0F0E0EC0FFD1FAE0F53
:101D0000BF1F28E0E7E6F3E001900D922A95E1F786
:101D10008C01055F1F4FE1E0F0E0EC0FFD1FE80FC5
:101D2000F91F8AE0808324CD8DE690E0B6CBD50103
:101D300052968D919C915397F101E81BF90BCE01BE
:101D40000196F7FD7FCE50962D913C915197E21769
:101D5000F3070CF077CEEE0FFF1F5A962D913C91B2
:101D6000E20FF31FAAE0B1E0AC0FBD1FAC0DBD1D2B
:101D70002C9130E0322F2227ABE0B1E0AC0FBD1F39
:101D8000AC0DBD1D4C91240F311DA8E0B1E0AC0F8E
:101D9000BD1FAC0DBD1D4C91642F70E0762F6627E2
:101DA000A9E0B1E0AC0FBD1FAC0DBD1D4C91460FBD
:101DB000572F511D60817181622773274623572356
:101DC000242735275ECEE8E0F1E0EC0FFD1FEC0D97
:101DD000FD1D808190E0982F8827E9E0F1E0EC0F6D
:101DE000FD1FEC0DFD1D2081FC01E20FF11DC35F05
:101DF000DD4FF983E883CD50D240ECE0F1E0EC0F09
:101E0000FD1FEC0DFD1D808190E0982F8827EDE0EF
:101E1000F1E0EC0FFD1FEC0DFD1D2081820F911DE7
:101E20009C01215031098E010F5F1F4F2937310569
:101E3000C0F4C35FDD4F28813981CD50D24021509D
:101E400031092D37310568F4EEE0F1E0EC0FFD1FAC
:101E5000EC0DFD1D40819C01220F331F421713061C
:101E600039F11F922DE72F931F9229E72F93C25F1D
:101E7000DD4FF881CE50D240FF93C35FDD4F288104
:101E8000CD50D2402F939F938F9380E793E09F9301
:101E90008F931F9281E08F931F930F931F9283E084
:101EA0008F937F926F925F924F920E94DE09EBCBED
:101EB000EAE0F1E0EC0FFD1FEC0DFD1D208130E0AC
:101EC000322F2227EBE0F1E0EC0FFD1FEC0DFD1DA2
:101ED0004081240F311DD50152964D915C9153974D
:101EE0007101E41AF50ACF5EDD4FF982E882C15133
:101EF000D240F901E41BF50BAF014F01F7FCDFC045
:101F0000C35FDD4F68817981CD50D2406E0D7F1D5A
:101F1000CB5EDD4F79836883C551D24050966D9179
:101F20007C91CB5EDD4FA881B981C551D2406A1743
:101F30007B0764F0FC01E40FF51FC95EDD4FF983F8
:101F4000E883C751D2406E177F07DCF457FD04C009
:101F5000280F391FF7FC08C0C35FDD4F4881598146
:101F6000CD50D240240E351E3F932F933F922F9297
:101F70008CEB93E09F938F931F921F921F930F936D
:101F8000B0CBD2015896ED91FC910484F585E02DFB
:101F9000B801C3010995F801E80FF91FC35FDD4FD0
:101FA0002881CD50D240220F2083C15FDD4FE881D0
:101FB000F981CF50D240AE014B5F5E4F9401220FAA
:101FC000331F241B350B2C193D09C95EDD4F488199
:101FD0005981C751D240841695060CF443C0F801CC
:101FE000E80FF91F9701220F331F201B310BB90196
:101FF000681B790BCB0141E050E0401B510B8A017B
:102000000E0F1F1FCB5EDD4F68817981C551D24015
:10201000CF5EDD4FA881B981C151D240A617B70765
:102020000CF0A6CBBC016E0F7F1FD5015A962D91E7
:102030003C91DB01A20FB31F11962C9111972183C4
:102040002C912283CF5EDD4F28813981C151D2404E
:102050002F5F3F4FCF5EDD4F39832883C151D24080
:102060003296CDCFD5015A964D915C91DA01A20FEF
:10207000B31FAE0FBF1F428550E0542F4427638526
:10208000460F511D4D935C93BFEF8B1A9B0A3296FE
:102090009CCF1F929F928DE094E09F938F931F920D
:1020A00081E08F939E012F5F3F4F3F932F931F92AD
:1020B00041CD0E94EE03C2010E94DB0396CBF7FFE5
:1020C00047CF52CF1F920F920FB60F9211242F932A
:1020D0003F938F939F93AF93BF93809170049091A0
:1020E0007104A0917204B091730430916F0423E0E5
:1020F000230F2D3758F50196A11DB11D20936F04B4
:102100008093700490937104A0937204B09373044D
:102110008091740490917504A0917604B091770435
:102120000196A11DB11D8093740490937504A09332
:102130007604B0937704BF91AF919F918F913F91B7
:102140002F910F900FBE0F901F90189526E8230F28
:102150000296A11DB11DD2CF1F920F920FB60F9202
:1021600011242F933F934F935F936F937F938F939C
:102170009F93AF93BF93EF93FF938AE894E00E94FD
:102180002303FF91EF91BF91AF919F918F917F9129
:102190006F915F914F913F912F910F900FBE0F90D4
:1021A0001F9018951F920F920FB60F9211242F9324
:1021B0008F939F93EF93FF93E0919A04F0919B0488
:1021C0008081E091A004F091A10482FD1BC0908168
:1021D0008091A3048F5F8F732091A404821741F034
:1021E000E091A304F0E0E657FB4F958F8093A304A2
:1021F000FF91EF919F918F912F910F900FBE0F90B4
:102200001F9018958081F4CF88E495E00E9404091E
:1022100085E695E00C94AE080F931F93CF93DF9360
:10222000EAE8F4E01382128248EE53E060E070E0E6
:10223000448355836683778382E391E0918380832F
:1022400085EC90E09587848784EC90E0978786877B
:1022500080EC90E0918B808B81EC90E0938B828B73
:1022600082EC90E0958B848B86EC90E0978B868B4C
:10227000118E128E138E148EA8E7B4E082E891E0DE
:1022800011969C938E9312961C92129713961C9201
:10229000139714961C92149715961C92AEE7B4E00F
:1022A00011969C938E9312961C92129713961C92E1
:1022B000139714961C92149715961C92A5E6B5E0F8
:1022C00013961C921E92129709E615E028E1E80188
:1022D00019922A95E9F72EE431E02D933C93A8E476
:1022E000B5E013961C921E92129714964D935D932F
:1022F0006D937C93179719961C921E9218971A96B5
:102300001C921A9754961C921E92539756961C92A2
:102310001E92559758961C921E9257975A961C9249
:102320001E9259975C961C921E925B9720E631E0B4
:102330002D933C93A4E8B4E011969C938E9312964F
:102340001C92129713961C92139714961C92149732
:1023500015961C92A7E2B5E013961C921E92129756
:1023600014964D935D936D937C93179728E631E017
:1023700011963C932E931D96FC93EE931C9721E0AF
:1023800030E01F963C932E931E9722E030E051964A
:102390003C932E9350972FEF3FEF53963C932E9301
:1023A000529754961C92E2E4F5E091838083128266
:1023B000138214821582DF91CF911F910F9108959E
:1023C000CF93DF9300D000D0CDB7DEB7789484B53B
:1023D000826084BD84B5816084BD85B5826085BD21
:1023E00085B5816085BD80916E00816080936E00AF
:1023F00010928100809181008260809381008091A1
:102400008100816080938100809180008160809351
:1024100080008091B10084608093B1008091B00011
:1024200081608093B00080917A00846080937A000C
:1024300080917A00826080937A0080917A00816036
:1024400080937A0080917A00806880937A0010925D
:10245000C10062E374E08AE894E00E94390968E40C
:1024600074E08AE894E00E9439098CE190E00E94CF
:10247000A7149A8389838FEF9FEFA981BA81119660
:102480009C938E9313969C938E93129715961C9201
:102490001E92149717961C921E921697FD01108695
:1024A00011861286138680E291EAA7E0B0E0848765
:1024B0009587A687B787108A118A128A138A848B18
:1024C000958BA68BB78B88E091E0918F808F88E009
:1024D00090E00E94A714FC01A981BA815B969C93AD
:1024E0008E935A9780E895E2A0E0B0E080839183D4
:1024F000A283B38386E090E095838483178216825B
:102500008091790590917A05009711F00E9443150A
:1025100080917B0590917C05009711F00E944315F6
:1025200080917D0590917E05009711F00E944315E2
:1025300080917F0590918005009711F00E944315CE
:10254000E9E6F5E088E1DF011D928A95E9F78091DF
:10255000670590916805009741F00E94BD03809146
:102560006705909168050E94B203E981FA81F093B2
:102570006805E0936705309709F463C1DF01008CBB
:10258000F18DE02D0084F185E02D61E070E0CD015A
:10259000099589819A810E94C80361E082E00E94C6
:1025A0001C0261E083E00E941C0261E084E00E9462
:1025B0001C0261E085E00E941C0261E086E00E944E
:1025C0001C0261E087E00E941C0261E088E00E943A
:1025D0001C0261E089E00E941C0261E08AE00E9426
:1025E0001C0261E08BE00E941C0261E08CE00E9412
:1025F0001C0261E08DE00E941C026CE070E08091A2
:10260000790590917A050E94CC1590937A05809374
:102610007905009709F0EDC010926C0510926B05DA
:1026200010926A051092690585E695E00E942B0AD2
:1026300090E080E00E94AB019C838B8381E090E07E
:102640000E94AB015C0182E090E00E94AB016C0152
:1026500083E090E00E94AB017C0184E090E00E9466
:10266000AB018C0185E090E00E94AB014C0186E05B
:1026700090E00E94AB011C0187E090E00E94AB015A
:102680009A8389832B813C81232B09F0C2C061E0AE
:1026900082E00E94D00160E083E00E94D00180913E
:1026A000000190910101AB81BC81A817B90731F1FC
:1026B0002D01BB0F660877082AE0B301A20177FE5F
:1026C0000DC06DE28AE894E00E9445034427552737
:1026D000BA0144195509660977092AE08AE894E0A5
:1026E0000E94480968E474E08AE894E00E9439098D
:1026F000EB81FC81F0930101E0930001AA94AB28E7
:1027000081F461E084E00E94D00168EB7BE080E02E
:1027100090E00E9472020E94880160E084E00E94C2
:10272000D001CD2809F07BC061E085E00E94D00196
:1027300060E086E00E94D001EA94EF2881F461E035
:1027400087E00E94D00168EB7BE080E090E00E948F
:1027500072020E94880160E087E00E94D001012B94
:1027600009F063C061E088E00E94D00160E089E088
:102770000E94D0018A94892881F461E08AE00E9455
:10278000D00168EB7BE080E090E00E9472020E9442
:10279000880160E08AE00E94D001232809F04BC044
:1027A00061E08BE00E94D00160E08CE00E94D001EB
:1027B00089819A81019781F461E08DE00E94D001C6
:1027C00068EB7BE080E090E00E9472020E9488014A
:1027D00060E08DE00E94D001A0E0B0E0AB2B09F4F6
:1027E00023CF0E940F03882309F41ECF0E9400000C
:1027F0001BCF2CE0FC0111922A95E9F710926C0591
:1028000010926B058CE090E090936A0580936905C7
:102810000BCF60E082E00E94D00161E03DCF60E03C
:1028200085E00E94D00161E084CF60E088E00E94F2
:10283000D00161E09CCF60E08BE00E94D00161E0BC
:10284000B4CF6BE474E08AE894E00E94390968E44C
:1028500074E08AE894E00E943909FFCF0E94701466
:10286000A59F900DB49F900DA49F800D911D1124E4
:1028700008952F923F924F925F926F927F928F9224
:102880009F92AF92BF92CF92DF92EF92FF920F93FF
:102890001F93CF93DF93CDB7DEB7CA1BDB0B0FB609
:1028A000F894DEBF0FBECDBF09942A8839884888C6
:1028B0005F846E847D848C849B84AA84B984C8845C
:1028C000DF80EE80FD800C811B81AA81B981CE0F53
:1028D000D11D0FB6F894DEBF0FBECDBFED01089538
:1028E000A29FB001B39FC001A39F700D811D112451
:1028F000911DB29F700D811D1124911D0895A1E2BB
:102900001A2EAA1BBB1BFD010DC0AA1FBB1FEE1F69
:10291000FF1FA217B307E407F50720F0A21BB30BB4
:10292000E40BF50B661F771F881F991F1A9469F730
:1029300060957095809590959B01AC01BD01CF018C
:102940000895EE0FFF1F0590F491E02D09940F9369
:102950001F93CF93DF938230910510F482E090E0D3
:10296000E0918B05F0918C0530E020E0B0E0A0E034
:10297000309799F42115310509F44AC0281B390B09
:1029800024303105D8F58A819B816115710589F163
:10299000FB0193838283FE0111C04081518102813A
:1029A000138148175907E0F04817590799F4109711
:1029B00061F012960C93129713961C933296CF01E6
:1029C000DF91CF911F910F91089500938B05109384
:1029D0008C05F4CF2115310551F04217530738F01B
:1029E000A901DB019A01BD01DF01F801C1CFEF01AF
:1029F000F9CF90938C0580938B05CDCFFE01E20F2C
:102A0000F31F819391932250310939832883D7CFC3
:102A10002091890530918A05232B41F420910401EE
:102A20003091050130938A05209389052091020198
:102A3000309103012115310541F42DB73EB7409186
:102A4000060150910701241B350BE0918905F09197
:102A50008A05E217F307A0F42E1B3F0B281739074E
:102A600078F0AC014E5F5F4F2417350748F04E0FEA
:102A70005F1F50938A0540938905819391939FCF5F
:102A8000F0E0E0E09CCFCF93DF930097E9F0FC010A
:102A9000329713821282A0918B05B0918C05ED01C3
:102AA00030E020E01097A1F420813181820F931F44
:102AB0002091890530918A052817390709F061C0EE
:102AC000F0938A05E0938905DF91CF910895EA019B
:102AD000CE17DF07E8F54A815B819E01411551055C
:102AE000B1F7E901FB83EA8349915991C40FD51FDE
:102AF000EC17FD0761F4808191810296840F951F88
:102B0000E90199838883828193819B838A83F0E0A2
:102B1000E0E012968D919C9113970097B9F52D9155
:102B20003C911197CD010296820F931F2091890548
:102B300030918A052817390739F6309751F51092E8
:102B40008C0510928B05B0938A05A0938905BCCFA4
:102B5000D383C28340815181840F951FC817D90741
:102B600061F44E5F5F4F88819981480F591F5183EF
:102B700040838A819B81938382832115310509F0EB
:102B8000B0CFF0938C05E0938B059ECFFD01DC0167
:102B9000C0CF13821282D7CFB0E0A0E0E2EDF5E122
:102BA0000C943B148C01009751F4CB010E94A714A4
:102BB0008C01C801CDB7DEB7E0E10C945714FC01DD
:102BC000E60FF71F9C0122503109E217F30708F4C2
:102BD0009DC0D901CD91DC911197C617D70798F008
:102BE000C530D10530F3CE0104978617970708F357
:102BF000C61BD70B2297C193D1936D937C93CF01C2
:102C00000E944315D6CF5B01AC1ABD0A4C018C0E55
:102C10009D1EA0918B05B0918C05512C412CF12C5F
:102C2000E12C109731F58091890590918A058815DE
:102C3000990509F05CC04616570608F058C0809107
:102C4000020190910301009741F48DB79EB7409126
:102C5000060150910701841B950BE817F90708F04E
:102C600055C0F0938A05E0938905F901718360836B
:102C7000A0CF8D919C91119712966C9012971396FC
:102C80007C901397A815B90559F56C0142E0C40E64
:102C9000D11CCA14DB0420F1AC014A195B09DA012A
:102CA0001296159780F06282738251834083D90116
:102CB0006D937C93E114F10471F0D7011396FC93AA
:102CC000EE93129776CF22968C0F9D1FF901918378
:102CD0008083F301EFCFF0938C05E0938B0569CFF0
:102CE0004816590608F42C017D01D3019ACFCB0177
:102CF0000E94A7147C01009749F0AE01B8010E9420
:102D00008E16C8010E944315870153CF10E000E0E2
:102D100050CF81E090E0F8940C941519FB01DC0190
:102D200002C001900D9241505040D8F70895ABE099
:102D3000B0E0EDE9F6E10C9439147C013B018A0125
:102D4000FC0117821682838181FFC8C1CE010196E2
:102D50005C01F7019381F30193FD859193FF8191CC
:102D60003F01882309F453C1853239F493FD8591DD
:102D700093FF81913F01853229F4B70190E00E94D1
:102D80008718E7CF912C212C312CFFE1F31538F077
:102D90008B3211F190F4803209F1833229F137FC42
:102DA0003CC020ED280F2A3050F536FE20C08AE0C6
:102DB000989E200D1124922E06C08D3291F0803302
:102DC00071F7689430F8F30193FD859193FF819139
:102DD0003F018111DACF21C0689431F8689432F84C
:102DE000F2CF689433F8EFCF689434F8ECCFEAE090
:102DF0002E9E200D1124222E689435F8E4CF8E32B9
:102E000029F436FC04C1689436F8DDCF8C3619F409
:102E1000689437F8D8CF8836B1F2982F9F7D9554B3
:102E20009330E0F08336A1F18337C1F1833509F0A7
:102E300063C02801F2E04F0E511CF801C080D18020
:102E4000692D70E036FC02C06FEF7FEFC6010E9473
:102E500071184C01689437F882010AC00C5F1F4F4B
:102E6000FFE3F98388248394912C6501E89437F873
:102E700033FE2DC0522C8114910471F5552009F4B4
:102E800068CFB70180E290E00E9487185A94F6CF8D
:102E9000F801808189830E5F1F4FE4CF2801F2E0A3
:102EA0004F0E511CF801C080D180692D70E036FCB6
:102EB00002C06FEF7FEFC6010E947C184C018201B7
:102EC000D5CFB70180E290E00E9487182A94281499
:102ED000190409F0B0F7CECFF60137FC859137FE23
:102EE00081916F01B70190E00E94871851105A94A8
:102EF000F1E08F1A9108BFCF843619F0893609F0B6
:102F000077C0F80137FE6BC0608171818281938147
:102F10000C5F1F4FF32DFF763F2E97FF09C0909552
:102F20008095709561957F4F8F4F9F4F689437F8CC
:102F30002AE030E0A5010E94B718C82ECA188C2CD0
:102F4000432C36FE0CC0E89440F8C91440F434FE1B
:102F500005C032FC03C0F32DFE7E4F2E892C44FEAB
:102F600095C0FE01EC0DF11D8081803309F087C012
:102F7000242D297E422E842D8870582E43FC95C026
:102F800040FE8FC09C2C821418F42C0C922C9818A4
:102F900044FE91C0B70180E390E00E94871842FE92
:102FA00009C088E790E041FE02C088E590E0B701E3
:102FB0000E948718C91408F48AC0CA94D12C9FEFC4
:102FC000C91AD90ACA0CDB1CF60182916F01B7013C
:102FD00090E00E948718AC14BD04B1F74FCF608118
:102FE0007181072E000C880B990B0E5F1F4F92CF3B
:102FF000D32CE894D4F82AE030E0853739F1232D3A
:10300000297FD22E8F3601F148F48835A9F0F701D7
:10301000868197812B96E2E10C945514803749F014
:103020008837A9F7D4FE02C06894D2F820E130E0D6
:103030000DC06894D4F8F6CF34FE03C0822F8660AA
:10304000D82E20E132E002C028E030E0F801D7FEBF
:103050000FC060817181828193810C5F1F4FA50138
:103060000E94B718C82ECA183D2CE89437F867CFCD
:103070006081718190E080E00E5F1F4FF0CF42FCD5
:1030800002C0839478CF8394839475CF842D8678FF
:1030900009F471CFF6CFB70180E290E00E94871863
:1030A00083948214C0F3512C73CF522C581882147D
:1030B00008F46ECFF8CF842D867809F47BCF8BE2AD
:1030C00041FE80E247FC8DE2B70190E071CFB7018D
:1030D00080E390E00E9487189A946CCF8FEF9FEF67
:1030E00099CFFC010590615070400110D8F7809590
:1030F00090958E0F9F1F0895FC01615070400190C4
:103100000110D8F7809590958E0F9F1F08950F930B
:103110001F93CF93DF93182F092FEB018B8181FD34
:1031200009C01FEF0FEF812F902FDF91CF911F91DB
:103130000F91089582FF14C02E813F818C819D8163
:10314000281739073CF4E881F981CF01019699836A
:10315000888310838E819F8101969F838E83E3CF26
:10316000E885F985812F0995892BA1F3DACFFA013A
:10317000AA27283051F1203181F1E8946F936E7FB6
:103180006E5F7F4F8F4F9F4FAF4FB1E03ED0B4E0A7
:103190003CD0670F781F891F9A1FA11D680F791FE8
:1031A0008A1F911DA11D6A0F711D811D911DA11DF9
:1031B00020D009F468943F912AE0269F1124301909
:1031C000305D3193DEF6CF010895462F4770405DA4
:1031D0004193B3E00FD0C9F7F6CF462F4F70405D53
:1031E0004A3318F0495D31FD4052419302D0A9F7AE
:1031F000EACFB4E0A6959795879577956795BA95A8
:10320000C9F700976105710508959B01AC010A2E6D
:1032100006945795479537952795BA95C9F7620F44
:10322000731F841F951FA01D089511E0CDE5D1E007
:1032300004C0FE010E94A1142196CE35D107C9F722
:04324000F894FFCF30
:103244000C0000008D058000000001000200000158
:1032540051062309460614063306C205A3058F0644
:1032640071078F058808F9076307FF061509000031
:1032740000004503A502D20292030303E102F50212
:1032840000000000210900000000000000002B0ADB
:10329400AE08D80800000000E208FA0800000000A8
:1032A40004090B09000000006506A502AB087906B5
:1032B400F4068406E906A2080608B10763060000BE
:1032C40000009409726561645F62697473007265D9
:1032D40061645F696E7075745F62697473007265AE
:1032E40061645F696E7075745F7265676973746534
:1032F400727300726561645F726567697374657285
:103304007300496C6C6567616C206E62206F662087
:1033140076616C75657320256420696E20257320A1
:10332400286D6178202564290A00496C6C65676101
:103334006C2064617461206164647265737320300D
:103344007825305820696E2025730A00496C6C6515
:1033540067616C2064617461206164647265737375
:1033640020307825305820696E2077726974655F43
:103374006269740A00496C6C6567616C20646174ED
:10338400612076616C756520307825305820696E2F
:103394002077726974655F626974207265717565FE
:1033A40073742061742061646472657373202530C2
:1033B400580A00496C6C6567616C20646174612013
:1033C4006164647265737320307825305820696EA7
:1033D4002077726974655F72656769737465720AD0
:1033E40000496C6C6567616C206E756D6265722056
:1033F4006F662076616C75657320256420696E2084
:1034040077726974655F6269747320286D617820CE
:103414002564290A00496C6C6567616C20646174D9
:10342400612061646472657373203078253058209C
:10343400696E2077726974655F626974730A004902
:103444006C6C6567616C206E756D626572206F6669
:103454002076616C75657320256420696E2077720F
:103464006974655F72656769737465727320286D2A
:103474006178202564290A00496C6C6567616C20B9
:1034840064617461206164647265737320307825AB
:10349400305820696E2077726974655F7265676958
:1034A40073746572730A004C4D42332E312E34000E
:1034B400496C6C6567616C206E62206F6620766172
:1034C4006C75657320285725642C205225642920A7
:1034D400696E2077726974655F616E645F7265619D
:1034E400645F72656769737465727320286D6178AF
:1034F400205725642C20522564290A00496C6C65E8
:1035040067616C2064617461207265616420616428
:103514006472657373203078253058206F72207779
:1035240072697465206164647265737320307825F0
:1035340030582077726974655F616E645F7265618B
:10354400645F7265676973746572730A00556E6BA4
:103554006E6F776E204D6F646275732066756E634F
:1035640074696F6E20636F64653A20307825305833
:103574000A004D6F6462757320525455205365726E
:10358400766572204C4544000D0A004661696C65FD
:103594006420746F207374617274204D6F6462755B
:0E35A4007320525455205365727665722100D3
:00000001FF
