:100000000C945E000C9486000C9486000C94860080
:100010000C9486000C9486000C9486000C94860048
:100020000C9486000C9486000C9486000C94860038
:100030000C9486000C9486000C9486000C94860028
:100040000C94540B0C9486000C94C40B0C949E0BD3
:100050000C9486000C9486000C9486000C94860008
:100060000C9486000C9486000000000024002700F9
:100070002A0000000000250028002B0004040404CE
:100080000404040402020202020203030303030342
:10009000010204081020408001020408102001021F
:1000A00004081020000000080002010000030407FB
:1000B0000000000000000000FE0BF60B11241FBE24
:1000C000CFEFD8E0DEBFCDBF24E0A0EFB3E001C0AA
:1000D0001D92A23FB207E1F713E0A0E0B1E0ECEB24
:1000E000F2E202C005900D92A03FB107D9F710E0EF
:1000F000CDE5D0E004C02197FE010E949A0DCC35D9
:10010000D107C9F70E94710C0C9451110C94000096
:1001100090E0FC01EC55FF4F2491FC01E057FF4FAC
:100120003491FC01E458FF4FE491EE23C9F02223FF
:1001300039F0233001F1A8F4213019F1223029F1EE
:10014000F0E0EE0FFF1FEE58FF4FA591B4918FB76F
:10015000F894EC91611126C030953E233C938FBFFB
:1001600008952730A9F02830C9F0243049F780914C
:1001700080008F7D03C0809180008F778093800006
:10018000DFCF84B58F7784BDDBCF84B58F7DFBCF88
:100190008091B0008F778093B000D2CF8091B00073
:1001A0008F7DF9CF3E2BDACFCF93DF9390E0FC0128
:1001B000E057FF4F249184589F4FFC01849188237E
:1001C000D1F090E0880F991FFC01E859FF4FA591ED
:1001D000B491FC01EE58FF4FC591D49161110EC04E
:1001E0009FB7F8948C91E22FE0958E238C93288111
:1001F000E223E8839FBFDF91CF9108958FB7F894F2
:10020000EC91E22BEC938FBFF6CF3FB7F89480913F
:10021000FA039091FB03A091FC03B091FD0326B576
:10022000A89B05C02F3F19F00196A11DB11D3FBF2E
:10023000BA2FA92F982F8827BC01CD01620F711DFD
:10024000811D911D42E0660F771F881F991F4A95F7
:10025000D1F70895AF92BF92CF92DF92EF92FF92C3
:100260000F931F93CF93DF936C017B018B01040FDE
:10027000151FEB015E01AE18BF08C017D10759F07A
:100280006991D601ED91FC910190F081E02DC601BC
:100290000995892B79F7C501DF91CF911F910F91B6
:1002A000FF90EF90DF90CF90BF90AF900895FC014A
:1002B000538D448D252F30E0842F90E0821B930BCB
:1002C000541710F0CF96089501970895FC01918D71
:1002D000828D981761F0A28DAE0FBF2FB11D5D9674
:1002E0008C91928D9F5F9F73928F90E008958FEF16
:1002F0009FEF0895FC01918D828D981731F0828DCA
:10030000E80FF11D858D90E008958FEF9FEF089520
:10031000FC01918D228D892F90E0805C9F4F821B84
:1003200091098F739927089580E194E00E948801D4
:1003300021E0892B09F420E0822F089580E090E0ED
:10034000892B29F00E94940181110C9400000895DA
:10035000FC01A48DA80FB92FB11DA35ABF4F2C913A
:10036000848D90E001968F739927848FA689B78931
:100370002C93A089B1898C91837080648C93938D28
:10038000848D981306C00288F389E02D80818F7DCB
:1003900080830895EF92FF920F931F93CF93DF9383
:1003A000EC0181E0888F9B8D8C8D98131AC0E889B1
:1003B000F989808185FF15C09FB7F894EE89FF8980
:1003C0006083E889F98980818370806480839FBF1E
:1003D00081E090E0DF91CF911F910F91FF90EF901E
:1003E0000895F62E0B8D10E00F5F1F4F0F7311272E
:1003F000E02E8C8D8E110CC00FB607FCFACFE88969
:10040000F989808185FFF5CFCE010E94A801F1CF47
:10041000EB8DEC0FFD2FF11DE35AFF4FF0829FB7DC
:10042000F8940B8FEA89FB8980818062CFCFCF93CC
:10043000DF93EC01888D8823B9F0AA89BB89E8890C
:10044000F9898C9185FD03C0808186FD0DC00FB6B2
:1004500007FCF7CF8C9185FFF2CF808185FFEDCF30
:10046000CE010E94A801E9CFDF91CF9108950097B6
:1004700041F0DC015896ED91FC9104A0F5A1E02D2E
:1004800009940895009741F0DC015896ED91FC9194
:1004900000A0F1A1E02D099486E190E09093E7049B
:1004A0008093E6048FEF9FEF08958F929F92AF9213
:1004B000BF92CF92DF92EF92FF92CF93DF93EC0146
:1004C000288539854A855B85A8EEB3E00E94270D13
:1004D0006B017C010E9405014B015C01C114D10438
:1004E000E104F104B9F00E940501681979098A094B
:1004F0009B09683E73408105910580F321E0C21A93
:10050000D108E108F10888EE880E83E0981EA11C4E
:10051000B11CE4CF8C859D858230910538F0880F21
:10052000991F880F991F05970197F1F7DF91CF91D8
:10053000FF90EF90DF90CF90BF90AF909F908F9003
:10054000089581E00895FC018489882349F0848519
:100550009585DC01ED91FC910190F081E02D0994ED
:1005600081E090E09383828390E080E00895DC0155
:100570001C968D919C91DC01ED91FC910680F78198
:10058000E02D0994DC011C968D919C91DC01ED918C
:10059000FC910284F385E02D0994DC011C968D9179
:1005A0009C91DC01ED91FC910484F585E02D09948A
:1005B000DC011C968D919C91DC01ED91FC910084F5
:1005C000F185E02D09940F931F93CF93DF938C0156
:1005D000FC01C485D585E881F9810680F781E02D8D
:1005E000CE010995EA89FB8980818F7E8083EA8923
:1005F000FB898081877F8083EA89FB8980818F776F
:100600008083EA89FB8980818F7D80838A8D898FB1
:10061000F8018289938997FD08C060E00E948800F4
:1006200060E0F80180890E94D400F80180899189F6
:1006300097FD0CC060E00E94880060E0F8018289AC
:10064000DF91CF911F910F910C94D400DF91CF9146
:100650001F910F910895CF92DF92EF92FF921F9317
:10066000CF93DF93EC016A017B01122FCD8ADE8AE2
:10067000EF8AF88E298F3A8F8889998997FD07C06C
:1006800061E00E94D40060E088890E9488008A8925
:100690009B8997FD07C061E00E94D40061E08A89D0
:1006A0000E9488001C8A0C84DD85C02DE889F989A8
:1006B00082E08083C11481EED806E104F104A1F048
:1006C00060E079E08DE390E0A70196010E94780D4B
:1006D000215031094109510956954795379527957C
:1006E000211580E1380798F0E889F989108260E8DF
:1006F00074E88EE190E0A70196010E94780D2150E8
:100700003109410951095695479537952795EC854B
:10071000FD853083EE85FF852083188EEC89FD8969
:100720001083EA89FB89808180618083EA89FB8963
:10073000808188608083EA89FB89808180688083EA
:10074000EA89FB8980818F7D8083DF91CF911F9122
:10075000FF90EF90DF90CF900895DC01ED91FC9138
:100760000088F189E02D26E030E0099490E080E0F7
:1007700008950E94C50E8F929F92AF92BF92EF9202
:10078000FF920F931F93CF93DF93CDB7DEB7A1975F
:100790000FB6F894DEBF0FBECDBF7C01FA01CB01CE
:1007A00019A2223008F42AE08E010F5D1F4F822E1D
:1007B000912CB12CA12CBF01A50194010E94780DB0
:1007C000F901CA016A3074F5605DD8016E938D013C
:1007D000232B242B252B79F790E080E0109789F0CC
:1007E000FD0101900020E9F73197AF014A1B5B0B37
:1007F000D701ED91FC910280F381E02DB801C70192
:100800000995A1960FB6F894DEBF0FBECDBFDF915C
:10081000CF911F910F91FF90EF90BF90AF909F905D
:100820008F900895695CD1CF8F929F92AF92BF92C3
:10083000CF92DF92EF92FF920F931F93CF93DF93AC
:100840007C01EB016C0182E0C80ED11C4701E5E0A0
:100850008E0E911C10E000E0F60141916F0150E016
:1008600070E060E02AE0CE010E94BB035C01E881F9
:10087000F9810190F081E02D6EE2CE0109958A0D9B
:100880009B1D080F191FC814D90431F7F7014581C2
:1008900050E070E060E02AE0CE010E94BB03800FD0
:1008A000911FDF91CF911F910F91FF90EF90DF90FB
:1008B000CF90BF90AF909F908F900895CF93DF938C
:1008C000EC018CE191E0998388838C899D89009764
:1008D00011F00E943C0E8E899F89009711F00E94B2
:1008E0003C0E888D998D009711F00E943C0E8A8DE8
:1008F0009B8D009711F00E943C0E8A819B8100978E
:1009000021F0DF91CF910C943702DF91CF910895C0
:10091000CF93DF93EC010E945E04CE01DF91CF9173
:100920000C943C0ECF93DF93EC0180E391E099832C
:1009300088838B899C89009711F00E943C0E8A81E4
:100940009B81009721F0DF91CF910C943702DF91CA
:10095000CF910895CF93DF93EC010E949204CE01D2
:10096000DF91CF910C943C0E28E331E0FC01318300
:1009700020830C949204CF93DF93EC010E94B40483
:10098000CE01DF91CF910C943C0EBF92CF92DF92BB
:10099000EF92FF920F931F93CF93DF93CDB7DEB704
:1009A000EC84FD84CE84DF84B8880A891B89D70152
:1009B00014968D919C91892B59F0AE01485E5F4F42
:1009C0006E897F898091EC049091ED040E94D30E92
:1009D0008C899D89892B31F0C7010E945502C7017E
:1009E0000E944202F6018281938180589F4F938337
:1009F0008283D7015896ED91FC910484F585E02D12
:100A0000B801C6010995F801E80FF91FB0820196F7
:100A1000DF91CF911F910F91FF90EF90DF90CF90DA
:100A2000BF9008952F923F924F925F926F927F9264
:100A30008F929F92AF92BF92CF92DF92EF92FF92EE
:100A40000F931F93CF93DF93CDB7DEB7C851D2403A
:100A50000FB6F894DEBF0FBECDBFFC01A281B381FB
:100A6000109701F586E190E09093E7048093E60407
:100A7000C85EDD4F0FB6F894DEBF0FBECDBFDF916D
:100A8000CF911F910F91FF90EF90DF90CF90BF908B
:100A9000AF909F908F907F906F905F904F903F901E
:100AA0002F9008955C017E01FBEFEF1AFEEFFF0A25
:100AB0005896ED91FC9159970488F589E02DB7017E
:100AC000CD010995181619069CF6D50112964D9080
:100AD0005C90C55FDD4F99838883CB50D240411431
:100AE000510409F4BFCFD2015896ED91FC91C28018
:100AF000D380A4E0B1E0AC0FBD1FAC0DBD1D8C9147
:100B0000282F30E0CD5EDD4F39832883C351D2409A
:100B1000A7014C0D5D1DC15FDD4F59834883CF5048
:100B2000D240DA019C90092D10E0A6E0B1E0AC0FB4
:100B3000BD1FAC0DBD1D2C90312C322C2224A7E002
:100B4000B1E0AC0FBD1FAC0DBD1D8C91280E311C4A
:100B50003E01BBEF6B1ABDEF7B0AD30111963C93AC
:100B60002E9313961C930E9312970684F785E02D0F
:100B7000BE01655F7D4FC7010995F30195838483AD
:100B8000EFEFE90DE73108F075C5F0E0E653FA4FF5
:100B90000C949A0DE105E10517071707A80700084F
:100BA00085093A0B3A0B3A0B3A0B3A0B3A0B3A0BD4
:100BB0003508E40854093A0B3A0B3A0B3A0B88090A
:100BC000D4090230110509F04CC0D5011A964D9197
:100BD0005C911B9718962D913C9119975696AD9064
:100BE000BC908CE491E0E8E0F1E0EC0FFD1FEC0D2F
:100BF000FD1DE080F12CFE2CEE24E9E0F1E0EC0F8D
:100C0000FD1FEC0DFD1D6081E60EF11CB70161506A
:100C10007109603D774078F127E02F9320ED2F9305
:100C20009F938F93FF92EF9280E891E09F938F9331
:100C30001F9281E08F9321E030E02C0F3D1F3F9306
:100C40002F931F9283E08F937F926F925F924F92C8
:100C50000E94C5048C010FB6F894DEBF0FBECDBF55
:100C60006EC0F5014681578124813581A488B588FD
:100C700082E491E0B8CF6101C41AD50AD7FC08C05C
:100C800047018C0C9D1C28153905E4F42E0C3F1CE3
:100C90009F938F933F922F9288EA91E09F938F9337
:100CA0001F921F9261E070E06C0F7D1F7F936F9326
:100CB0001F9282E08F937F926F925F924F920E9479
:100CC000C504C8CFD2015896ED91FC910484F585F6
:100CD000E02DBE016F5F7F4FC30109958C010F5F4F
:100CE0001F4FE1E0F0E0EC0FFD1F8E0F9F1F21E092
:100CF000A70147705527452B09F420E0F3E0F59450
:100D0000E794FA95E1F7E20EDC01EC92F501EC0DC7
:100D1000FD1D30E020E090E080E0AF014A195B0962
:100D2000481559050CF46AC0892B49F0E1E0F0E060
:100D3000EC0FFD1FE00FF11F20830F5F1F4FCD5EF3
:100D4000DD4F28813981C351D240232B09F490CE45
:100D5000D2015896ED91FC910088F189E02DB801FF
:100D6000CE01019609957C01D2015896ED91FC9136
:100D70000288F389E02DA701BE016F5F7F4FC2019A
:100D800009958B016F3F7F4F39F5F201868181FF15
:100D900023C0C090E604D090E704F2EFCF16FDE246
:100DA000DF0609F077C4D2015896ED91FC91068CCC
:100DB000F78DE02DC2010995C2010E945502D201B2
:100DC0005896ED91FC91048CF58DE02DC2010995AA
:100DD000D092E704C092E604F201868181FF03C04D
:100DE0000F3F100709F2101611060CF041CEE01665
:100DF000F10609F43DCE8FEE9BE236CE419150E0F4
:100E0000082E02C0440F551F0A94E2F7242B352BFD
:100E10008730910551F4A1E0B0E0AC0FBD1FA00FE9
:100E2000B11F2C930F5F1F4F74CF019676CF043004
:100E30001105B1F5F5014685578524853585808CEA
:100E4000918C8CE591E0E8E0F1E0EC0FFD1FEC0DFA
:100E5000FD1D008110E0102F0027E9E0F1E0EC0F0C
:100E6000FD1FEC0DFD1D6081060F111DB8016150C5
:100E70007109FE0131966F016D37710500F11F9206
:100E80002DE72F939F938F931F930F9380E891E00B
:100E90009F938F931F9281E08F93FF93EF93D1CE17
:100EA000D50152964D915C91539750962D913C915E
:100EB00051975A968D909C9081E791E0C4CF710133
:100EC000E41AF50A5701F7FC07C0E00EF11E2E15D3
:100ED0003F057CF4200E311E9F938F933F922F92FB
:100EE00088EA91E09F938F931F921F92DF92CF9297
:100EF000DFCED2015896ED91FC910484F585E02D6A
:100F0000B601C3010995F601E80FF91F000F008330
:100F10009501220F331F820E931E0196F601E80FF2
:100F2000F91F8F010C191D09AE14BF040CF007CF77
:100F3000D40111968C91B2E08B0E911C8083D40168
:100F400012978C9181832FEFA21AB20A3296E9CFC1
:100F5000D50116968D919C911797A101481B590BAD
:100F6000CE01019657FD06C014962D913C91421773
:100F700053074CF03F922F922AEC31E03F932F938E
:100F80001F921F928EC1E8E0F1E0EC0FFD1FEC0D07
:100F9000FD1D208130E0322F2227E9E0F1E0EC0F47
:100FA000FD1FEC0DFD1D6081260F311D2115FFEF8A
:100FB0003F0719F021153105B1F4D5015496ED9193
:100FC000FC91E40FF51F41E0232B09F440E040833E
:100FD000C55FDD4F08811981CB50D240A801B70110
:100FE0000E94CA0EACCE3F922F923F932F9323EFD5
:100FF00031E03F932F931F921F929F938F9361C075
:10100000D50152968D919C9153979101281B390BD4
:10101000CE01019637FD07C050964D915C915197D6
:10102000241735072CF03F922F9221E332E0A6CF10
:10103000220F331F5A96ED91FC91E20FF31FA8E0A7
:10104000B1E0AC0FBD1FAC0DBD1D2C9130E0322FB7
:101050002227A9E0B1E0AC0FBD1FAC0DBD1D4C9126
:10106000240F311D31832083B3CFE8E0F1E0EC0F92
:10107000FD1FEC0DFD1D808190E0982F8827E9E091
:10108000F1E0EC0FFD1FEC0DFD1D2081820F911D85
:101090009C0121503109203B3740B0F027E02F93CD
:1010A00020EB2F939F938F938FE592E09F938F93E5
:1010B0001F9281E08F93E1E0F0E0EC0FFD1FFF93C2
:1010C000EF931F9283E0F6CDD50116962D913C91BA
:1010D0001797F101E21BF30B9F01F7FD0CC0BC0158
:1010E0006E0F7F1F14964D915C9115974617570709
:1010F000D4F4280E391E3F922F9283E992E09F93F9
:101100008F931F921F9221E030E02C0F3D1F3F93E1
:101110002F931F9282E08F937F926F925F924F92F4
:101120000E94C50497CD56E0C50ED11C54960D9172
:101130001C91200F311FF90150E040E081E090E068
:101140008C0F9D1FC80ED91ECF01801B910B8617D7
:101150009707F0F0D2015896ED91FC910484F58543
:10116000E02DBE016F5F7F4FC3010995A1E0B0E0A4
:10117000AC0FBD1FA80FB91FF701E80FF91F24E03E
:1011800001900D922A95E1F78C010C5F1F4FD7CD8E
:10119000CF01821B930BA3E096958795AA95E1F763
:1011A0008C0D9D1D8C5F9E4FDC018C9190E0042E78
:1011B00002C0959587950A94E2F7817081934F5FFD
:1011C0005F4F47705527C0CFE8E0F1E0EC0FFD1FFF
:1011D000EC0DFD1D208130E0322F2227E9E0F1E007
:1011E000EC0FFD1FEC0DFD1D8081280F311DC90185
:1011F00001978B37910578F01F928BE78F933F9380
:101200002F938DEB92E09F938F931F9281E08F93AA
:10121000CE010196F2CED50152968D919C915397B5
:10122000F101E81BF90BCF01F7FD31C0A9014E0F09
:101230005F1F50966D917C916417750734F1C15F03
:10124000DD4FE881F981CF50D2409C01220F331F3E
:101250002E193F092C193D09841795070CF07ACFF8
:10126000D5015A966D917C91DB01A20FB31FAE0F91
:10127000BF1F668170E0762F66271781610F711D91
:101280006D937C9301963296E7CF220E331E3F92E8
:101290002F9286EF92E09F938F931F921F92CE0121
:1012A00001969F938F9335CFD2015896ED91FC9183
:1012B0000484F585E02DBE016F5F7F4FC301099562
:1012C000FE01E80FF91F24EB2283FE01E80FF91F4E
:1012D0002FEF2383DC011396E1E0F0E0EC0FFD1F1C
:1012E000AE0FBF1F28E0E5E2F3E001900D922A95D2
:1012F000E1F78C01055F1F4FE1E0F0E0EC0FFD1F0F
:10130000E80FF91F8AE080831ACD8DE690E0ACCB20
:10131000D50152968D919C915397F101E81BF90BE1
:10132000CE010196F7FD7FCE50962D913C915197BD
:10133000E217F3070CF077CEEE0FFF1F5A962D91B0
:101340003C91E20FF31FAAE0B1E0AC0FBD1FAC0D62
:10135000BD1D2C9130E0322F2227ABE0B1E0AC0F65
:10136000BD1FAC0DBD1D4C91240F311DA8E0B1E097
:10137000AC0FBD1FAC0DBD1D4C91642F70E0762FDE
:101380006627A9E0B1E0AC0FBD1FAC0DBD1D4C91AF
:10139000460F572F511D60817181622773274623A5
:1013A0005723242735275ECEE8E0F1E0EC0FFD1F40
:1013B000EC0DFD1D808190E0982F8827E9E0F1E099
:1013C000EC0FFD1FEC0DFD1D2081FC01E20FF11D56
:1013D000C35FDD4FF983E883CD50D240ECE0F1E00C
:1013E000EC0FFD1FEC0DFD1D808190E0982F8827EC
:1013F000EDE0F1E0EC0FFD1FEC0DFD1D2081820FF3
:10140000911D9C01215031098E010F5F1F4F29371B
:101410003105C0F4C35FDD4F28813981CD50D24002
:10142000215031092D37310568F4EEE0F1E0EC0F81
:10143000FD1FEC0DFD1D40819C01220F331F421743
:10144000130639F11F922DE72F931F9229E72F934F
:10145000C25FDD4FF881CE50D240FF93C35FDD4FB6
:101460002881CD50D2402F939F938F938EE293E0AB
:101470009F938F931F9281E08F931F930F931F92DF
:1014800083E08F937F926F925F924F920E94C50488
:10149000E1CBEAE0F1E0EC0FFD1FEC0DFD1D20813A
:1014A00030E0322F2227EBE0F1E0EC0FFD1FEC0DD6
:1014B000FD1D4081240F311DD50152964D915C9147
:1014C00053977101E41AF50ACF5EDD4FF982E88285
:1014D000C151D240F901E41BF50BAF014F01F7FCFC
:1014E000E0C0C35FDD4F68817981CD50D2406E0D81
:1014F0007F1DCB5EDD4F79836883C551D240509606
:101500006D917C91CB5EDD4FA881B981C551D240F0
:101510006A177B0764F0FC01E40FF51FC95EDD4F1D
:10152000F983E883C751D2406E177F07DCF457FD7B
:1015300004C0280F391FF7FC08C0C35FDD4F488186
:101540005981CD50D240240E351E3F932F933F92A8
:101550002F928AE793E09F938F931F921F921F937E
:101560000F93A6CBD2015896ED91FC910484F5859A
:10157000E02DB801C3010995F801E80FF91FC35F19
:10158000DD4F2881CD50D240220F2083C15FDD4F37
:10159000E881F981CF50D240AE014B5F5E4F94019C
:1015A000220F331F241B350B2C193D09C95EDD4F5B
:1015B00048815981C751D240841695060CF443C026
:1015C000F801E80FF91F9701220F331F201B310B81
:1015D000B901681B790BCB0141E050E0401B510B76
:1015E0008A010E0F1F1FCB5EDD4F68817981C551C7
:1015F000D240CF5EDD4FA881B981C151D240A6173C
:10160000B7070CF09CCBBC016E0F7F1FD5015A961B
:101610002D913C91DB01A20FB31F11962C911197D4
:1016200021832C912283CF5EDD4F28813981C151E6
:10163000D2402F5F3F4FCF5EDD4F39832883C151AA
:10164000D2403296CDCFD5015A964D915C91DA01B8
:10165000A20FB31FAE0FBF1F428550E0542F442787
:101660006385460F511D4D935C93BFEF8B1A9B0A08
:1016700032969CCF1F929F928BEC93E09F938F9317
:101680001F9281E08F939E012F5F3F4F3F932F93D7
:101690001F9241CDC2010E945502C2010E94420226
:1016A00097CBF7FF46CF51CF1F920F920FB60F92F5
:1016B00011242F933F938F939F93AF93BF93809168
:1016C000F6039091F703A091F803B091F9033091DC
:1016D000F50323E0230F2D3758F50196A11DB11D09
:1016E0002093F5038093F6039093F703A093F803F8
:1016F000B093F9038091FA039091FB03A091FC034E
:10170000B091FD030196A11DB11D8093FA03909342
:10171000FB03A093FC03B093FD03BF91AF919F9196
:101720008F913F912F910F900FBE0F901F901895A2
:1017300026E8230F0296A11DB11DD2CF1F920F9252
:101740000FB60F9211242F933F934F935F936F9394
:101750007F938F939F93AF93BF93EF93FF9380E11A
:1017600094E00E94A801FF91EF91BF91AF919F91EA
:101770008F917F916F915F914F913F912F910F903A
:101780000FBE0F901F9018951F920F920FB60F92D9
:1017900011242F938F939F93EF93FF93E091200455
:1017A000F09121048081E0912604F091270482FDCC
:1017B0001BC09081809129048F5F8F7320912A0430
:1017C000821741F0E0912904F0E0E05FFB4F958F34
:1017D00080932904FF91EF919F918F912F910F900A
:1017E0000FBE0F901F9018958081F4CF8DEA94E082
:1017F0000E94B4048AEC94E00C945E04CF93DF93CF
:10180000E0E1F4E01382128248EE53E060E070E021
:1018100044835583668377838AE091E09183808354
:1018200085EC90E09587848784EC90E097878687A5
:1018300080EC90E0918B808B81EC90E0938B828B9D
:1018400082EC90E0958B848B86EC90E0978B868B76
:10185000118E128E138E148EEEEFF3E080E491E081
:10186000918380831282138214821582E4E0F4E073
:10187000918380831282138214821582EAECF4E051
:1018800013821282AEECB4E028E1ED0119922A95A0
:10189000E9F726E231E031832083EDEAF4E01382B8
:1018A000128244835583668377831186108612865D
:1018B000148A138A168A158A108E178A128E118E30
:1018C000148E138E28E331E031832083EAE0F4E0C4
:1018D000918380831282138214821582DF91CF91CB
:1018E0000895789484B5826084BD84B5816084BD98
:1018F00085B5826085BD85B5816085BD80916E00AE
:10190000816080936E0010928100809181008260DE
:10191000809381008091810081608093810080911B
:1019200080008160809380008091B100846080930A
:10193000B1008091B00081608093B00080917A0006
:10194000846080937A0080917A00826080937A002C
:1019500080917A00816080937A0080917A0080681B
:1019600080937A001092C10061E082E00E94D4006E
:1019700061E083E00E94D40061E084E00E94D40032
:1019800061E085E00E94D40061E086E00E94D4001E
:1019900061E087E00E94D40061E088E00E94D4000A
:1019A00061E089E00E94D40061E08AE00E94D400F6
:1019B00061E08BE00E94D40061E08CE00E94D400E2
:1019C00061E08DE00E94D400C0E0D0E01092F4030A
:1019D0001092F30361E082E00E94880060E083E0FF
:1019E0000E94880060E084E00E94880061E085E059
:1019F0000E9488001092F2031092F10361E086E0E9
:101A00000E94880060E087E00E94880060E088E033
:101A10000E94880061E089E00E94880061E08AE01D
:101A20000E94880061E08BE00E94880061E08CE009
:101A30000E94880061E08DE00E948800209731F2CA
:101A40000E949401882311F20E940000BFCF0E94DF
:101A5000690DA59F900DB49F900DA49F800D911DC1
:101A6000112408952F923F924F925F926F927F922E
:101A70008F929F92AF92BF92CF92DF92EF92FF929E
:101A80000F931F93CF93DF93CDB7DEB7CA1BDB0B4A
:101A90000FB6F894DEBF0FBECDBF09942A883988EF
:101AA00048885F846E847D848C849B84AA84B984F6
:101AB000C884DF80EE80FD800C811B81AA81B98102
:101AC000CE0FD11D0FB6F894DEBF0FBECDBFED0116
:101AD0000895A29FB001B39FC001A39F700D811D07
:101AE0001124911DB29F700D811D1124911D089527
:101AF000A1E21A2EAA1BBB1BFD010DC0AA1FBB1F12
:101B0000EE1FFF1FA217B307E407F50720F0A21B83
:101B1000B30BE40BF50B661F771F881F991F1A94F0
:101B200069F760957095809590959B01AC01BD011A
:101B3000CF010895EE0FFF1F0590F491E02D099459
:101B40000F931F93CF93DF938230910510F482E0BF
:101B500090E0E091F004F091F10430E020E0B0E09A
:101B6000A0E0309799F42115310509F44AC0281BEB
:101B7000390B24303105D8F58A819B8161157105B7
:101B800089F1FB0193838283FE0111C04081518161
:101B90000281138148175907E0F04817590799F453
:101BA000109761F012960C93129713961C9332962D
:101BB000CF01DF91CF911F910F9108950093F00411
:101BC0001093F104F4CF2115310551F0421753075A
:101BD00038F0A901DB019A01BD01DF01F801C1CF95
:101BE000EF01F9CF9093F1048093F004CDCFFE0183
:101BF000E20FF31F81939193225031093983288397
:101C0000D7CF2091EE043091EF04232B41F42091A3
:101C10000201309103013093EF042093EE042091F0
:101C20000001309101012115310541F42DB73EB776
:101C30004091040150910501241B350BE091EE0405
:101C4000F091EF04E217F307A0F42E1B3F0B2817C7
:101C5000390778F0AC014E5F5F4F2417350748F025
:101C60004E0F5F1F5093EF044093EE0481939193C6
:101C70009FCFF0E0E0E09CCFCF93DF930097E9F0B7
:101C8000FC01329713821282A091F004B091F1040A
:101C9000ED0130E020E01097A1F420813181820F26
:101CA000931F2091EE043091EF042817390709F0B3
:101CB00061C0F093EF04E093EE04DF91CF910895BB
:101CC000EA01CE17DF07E8F54A815B819E014115E5
:101CD0005105B1F7E901FB83EA8349915991C40F9A
:101CE000D51FEC17FD0761F4808191810296840F66
:101CF000951FE90199838883828193819B838A83DD
:101D0000F0E0E0E012968D919C9113970097B9F561
:101D10002D913C911197CD010296820F931F209136
:101D2000EE043091EF042817390739F6309751F552
:101D30001092F1041092F004B093EF04A093EE041B
:101D4000BCCFD383C28340815181840F951FC817B4
:101D5000D90761F44E5F5F4F88819981480F591F01
:101D6000518340838A819B8193838283211531052E
:101D700009F0B0CFF093F104E093F0049ECFFD01A1
:101D8000DC01C0CF13821282D7CF81E090E0F894BB
:101D90000C945111FB01DC0102C001900D924150E5
:101DA0005040D8F70895ABE0B0E0E9EDFEE00C94C8
:101DB000320D7C013B018A01FC011782168283816E
:101DC00081FFC8C1CE0101965C01F7019381F30147
:101DD00093FD859193FF81913F01882309F453C1BD
:101DE000853239F493FD859193FF81913F018532CE
:101DF00029F4B70190E00E94C310E7CF912C212C69
:101E0000312CFFE1F31538F08B3211F190F4803270
:101E100009F1833229F137FC3CC020ED280F2A302C
:101E200050F536FE20C08AE0989E200D1124922E97
:101E300006C08D3291F0803371F7689430F8F30169
:101E400093FD859193FF81913F018111DACF21C0EC
:101E5000689431F8689432F8F2CF689433F8EFCF91
:101E6000689434F8ECCFEAE02E9E200D1124222E47
:101E7000689435F8E4CF8E3229F436FC04C16894B6
:101E800036F8DDCF8C3619F4689437F8D8CF883619
:101E9000B1F2982F9F7D95549330E0F08336A1F1F5
:101EA0008337C1F1833509F063C02801F2E04F0E9A
:101EB000511CF801C080D180692D70E036FC02C051
:101EC0006FEF7FEFC6010E94AD104C01689437F8A8
:101ED00082010AC00C5F1F4FFFE3F98388248394BB
:101EE000912C6501E89437F833FE2DC0522C8114F3
:101EF000910471F5552009F468CFB70180E290E0B4
:101F00000E94C3105A94F6CFF801808189830E5F36
:101F10001F4FE4CF2801F2E04F0E511CF801C080A2
:101F2000D180692D70E036FC02C06FEF7FEFC601F3
:101F30000E94B8104C018201D5CFB70180E290E039
:101F40000E94C3102A942814190409F0B0F7CECFC8
:101F5000F60137FC859137FE81916F01B70190E062
:101F60000E94C31051105A94F1E08F1A9108BFCF0C
:101F7000843619F0893609F077C0F80137FE6BC056
:101F800060817181828193810C5F1F4FF32DFF76F9
:101F90003F2E97FF09C090958095709561957F4F72
:101FA0008F4F9F4F689437F82AE030E0A5010E94D8
:101FB000F310C82ECA188C2C432C36FE0CC0E894A3
:101FC00040F8C91440F434FE05C032FC03C0F32DC0
:101FD000FE7E4F2E892C44FE95C0FE01EC0DF11DB6
:101FE0008081803309F087C0242D297E422E842DE4
:101FF0008870582E43FC95C040FE8FC09C2C8214E4
:1020000018F42C0C922C981844FE91C0B70180E370
:1020100090E00E94C31042FE09C088E790E041FEB4
:1020200002C088E590E0B7010E94C310C91408F40B
:102030008AC0CA94D12C9FEFC91AD90ACA0CDB1CDA
:10204000F60182916F01B70190E00E94C310AC14B9
:10205000BD04B1F74FCF60817181072E000C880B52
:10206000990B0E5F1F4F92CFD32CE894D4F82AE03F
:1020700030E0853739F1232D297FD22E8F3601F1BB
:1020800048F48835A9F0F701868197812B96E2E123
:102090000C944E0D803749F08837A9F7D4FE02C062
:1020A0006894D2F820E130E00DC06894D4F8F6CFFF
:1020B00034FE03C0822F8660D82E20E132E002C0B9
:1020C00028E030E0F801D7FE0FC060817181828185
:1020D00093810C5F1F4FA5010E94F310C82ECA18F0
:1020E0003D2CE89437F867CF6081718190E080E003
:1020F0000E5F1F4FF0CF42FC02C0839478CF8394D1
:10210000839475CF842D867809F471CFF6CFB7010B
:1021100080E290E00E94C31083948214C0F3512C9B
:1021200073CF522C5818821408F46ECFF8CF842D38
:10213000867809F47BCF8BE241FE80E247FC8DE29A
:10214000B70190E071CFB70180E390E00E94C31027
:102150009A946CCF8FEF9FEF99CFFC01059061505F
:1021600070400110D8F7809590958E0F9F1F0895AD
:10217000FC016150704001900110D8F78095909556
:102180008E0F9F1F08950F931F93CF93DF93182FE8
:10219000092FEB018B8181FD09C01FEF0FEF812F0C
:1021A000902FDF91CF911F910F91089582FF14C05E
:1021B0002E813F818C819D81281739073CF4E8816D
:1021C000F981CF0101969983888310838E819F8145
:1021D00001969F838E83E3CFE885F985812F09954A
:1021E000892BA1F3DACFFA01AA27283051F1203147
:1021F00081F1E8946F936E7F6E5F7F4F8F4F9F4F9B
:10220000AF4FB1E03ED0B4E03CD0670F781F891FDC
:102210009A1FA11D680F791F8A1F911DA11D6A0FAA
:10222000711D811D911DA11D20D009F468943F915D
:102230002AE0269F11243019305D3193DEF6CF015C
:102240000895462F4770405D4193B3E00FD0C9F722
:10225000F6CF462F4F70405D4A3318F0495D31FD8F
:102260004052419302D0A9F7EACFB4E0A6959795E2
:10227000879577956795BA95C9F7009761057105B8
:1022800008959B01AC010A2E069457954795379502
:102290002795BA95C9F7620F731F841F951FA01D5C
:1022A000089510E0CDE5D0E004C0FE010E949A0D33
:0C22B0002196CE35D107C9F7F894FFCF76
:1022BC000000F204800000000000CA012A0157014E
:1022CC001702880166017A0100000000B9030000C2
:1022DC0000000000000012055E04880400000000ED
:1022EC009204AA0400000000B404BB040000000027
:1022FC001404726561645F62697473007265616471
:10230C005F696E7075745F62697473007265616485
:10231C005F696E7075745F726567697374657273EB
:10232C0000726561645F72656769737465727300CE
:10233C00496C6C6567616C206E62206F66207661FB
:10234C006C75657320256420696E20257320286DBB
:10235C006178202564290A00496C6C6567616C20E2
:10236C0064617461206164647265737320307825D4
:10237C00305820696E2025730A00496C6C656761C2
:10238C006C206461746120616464726573732030C5
:10239C007825305820696E2077726974655F6269A0
:1023AC00740A00496C6C6567616C2064617461200F
:1023BC0076616C756520307825305820696E2077F1
:1023CC00726974655F626974207265717565737486
:1023DC002061742061646472657373202530580A1F
:1023EC0000496C6C6567616C206461746120616488
:1023FC00647265737320307825305820696E2077AD
:10240C00726974655F72656769737465720A0049F5
:10241C006C6C6567616C206E756D626572206F66A1
:10242C002076616C75657320256420696E20777247
:10243C006974655F6269747320286D617820256406
:10244C00290A00496C6C6567616C206461746120B9
:10245C006164647265737320307825305820696E1E
:10246C002077726974655F626974730A00496C6CD9
:10247C006567616C206E756D626572206F66207683
:10248C00616C75657320256420696E2077726974A0
:10249C00655F72656769737465727320286D617806
:1024AC00202564290A00496C6C6567616C206461A5
:1024BC0074612061646472657373203078253058C0
:1024CC0020696E2077726974655F726567697374D1
:1024DC006572730A004C4D42332E312E3400496C18
:1024EC006C6567616C206E62206F662076616C751E
:1024FC00657320285725642C205225642920696E89
:10250C002077726974655F616E645F726561645F88
:10251C0072656769737465727320286D61782057D2
:10252C0025642C20522564290A00496C6C6567616E
:10253C006C206461746120726561642061646472F2
:10254C00657373203078253058206F72207772694C
:10255C00746520616464726573732030782530581B
:10256C002077726974655F616E645F726561645F28
:10257C007265676973746572730A00556E6B6E6F62
:10258C00776E204D6F646275732066756E63746927
:10259C006F6E20636F64653A2030782530580A00DE
:00000001FF
